{
  "contractName": "ZombieOwnership",
  "abi": [
    {
      "constant": false,
      "inputs": [
        {
          "name": "_zombieId",
          "type": "uint256"
        }
      ],
      "name": "levelUp",
      "outputs": [],
      "payable": true,
      "stateMutability": "payable",
      "type": "function"
    },
    {
      "constant": false,
      "inputs": [
        {
          "name": "_zombieId",
          "type": "uint256"
        },
        {
          "name": "_kittyId",
          "type": "uint256"
        }
      ],
      "name": "feedOnKitty",
      "outputs": [],
      "payable": false,
      "stateMutability": "nonpayable",
      "type": "function"
    },
    {
      "constant": true,
      "inputs": [
        {
          "name": "",
          "type": "uint256"
        }
      ],
      "name": "zombies",
      "outputs": [
        {
          "name": "name",
          "type": "string"
        },
        {
          "name": "dna",
          "type": "uint256"
        },
        {
          "name": "level",
          "type": "uint32"
        },
        {
          "name": "readyTime",
          "type": "uint32"
        },
        {
          "name": "winCount",
          "type": "uint16"
        },
        {
          "name": "lossCount",
          "type": "uint16"
        }
      ],
      "payable": false,
      "stateMutability": "view",
      "type": "function"
    },
    {
      "constant": false,
      "inputs": [],
      "name": "withdraw",
      "outputs": [],
      "payable": false,
      "stateMutability": "nonpayable",
      "type": "function"
    },
    {
      "constant": true,
      "inputs": [
        {
          "name": "_owner",
          "type": "address"
        }
      ],
      "name": "getZombiesByOwner",
      "outputs": [
        {
          "name": "",
          "type": "uint256[]"
        }
      ],
      "payable": false,
      "stateMutability": "view",
      "type": "function"
    },
    {
      "constant": true,
      "inputs": [
        {
          "name": "",
          "type": "uint256"
        }
      ],
      "name": "zombieToOwner",
      "outputs": [
        {
          "name": "",
          "type": "address"
        }
      ],
      "payable": false,
      "stateMutability": "view",
      "type": "function"
    },
    {
      "constant": false,
      "inputs": [
        {
          "name": "_address",
          "type": "address"
        }
      ],
      "name": "setKittyContractAddress",
      "outputs": [],
      "payable": false,
      "stateMutability": "nonpayable",
      "type": "function"
    },
    {
      "constant": false,
      "inputs": [
        {
          "name": "_zombieId",
          "type": "uint256"
        },
        {
          "name": "_newDna",
          "type": "uint256"
        }
      ],
      "name": "changeDna",
      "outputs": [],
      "payable": false,
      "stateMutability": "nonpayable",
      "type": "function"
    },
    {
      "constant": false,
      "inputs": [
        {
          "name": "_name",
          "type": "string"
        }
      ],
      "name": "createRandomZombie",
      "outputs": [],
      "payable": false,
      "stateMutability": "nonpayable",
      "type": "function"
    },
    {
      "constant": true,
      "inputs": [],
      "name": "owner",
      "outputs": [
        {
          "name": "",
          "type": "address"
        }
      ],
      "payable": false,
      "stateMutability": "view",
      "type": "function"
    },
    {
      "constant": false,
      "inputs": [
        {
          "name": "_zombieId",
          "type": "uint256"
        },
        {
          "name": "_newName",
          "type": "string"
        }
      ],
      "name": "changeName",
      "outputs": [],
      "payable": false,
      "stateMutability": "nonpayable",
      "type": "function"
    },
    {
      "constant": false,
      "inputs": [
        {
          "name": "_fee",
          "type": "uint256"
        }
      ],
      "name": "setLevelUpFee",
      "outputs": [],
      "payable": false,
      "stateMutability": "nonpayable",
      "type": "function"
    },
    {
      "constant": false,
      "inputs": [
        {
          "name": "_zombieId",
          "type": "uint256"
        },
        {
          "name": "_targetId",
          "type": "uint256"
        }
      ],
      "name": "attack",
      "outputs": [],
      "payable": false,
      "stateMutability": "nonpayable",
      "type": "function"
    },
    {
      "constant": false,
      "inputs": [
        {
          "name": "newOwner",
          "type": "address"
        }
      ],
      "name": "transferOwnership",
      "outputs": [],
      "payable": false,
      "stateMutability": "nonpayable",
      "type": "function"
    },
    {
      "anonymous": false,
      "inputs": [
        {
          "indexed": true,
          "name": "_from",
          "type": "address"
        },
        {
          "indexed": true,
          "name": "_to",
          "type": "address"
        },
        {
          "indexed": false,
          "name": "_tokenId",
          "type": "uint256"
        }
      ],
      "name": "Transfer",
      "type": "event"
    },
    {
      "anonymous": false,
      "inputs": [
        {
          "indexed": true,
          "name": "_owner",
          "type": "address"
        },
        {
          "indexed": true,
          "name": "_approved",
          "type": "address"
        },
        {
          "indexed": false,
          "name": "_tokenId",
          "type": "uint256"
        }
      ],
      "name": "Approval",
      "type": "event"
    },
    {
      "anonymous": false,
      "inputs": [
        {
          "indexed": true,
          "name": "attackingZombie",
          "type": "uint256"
        },
        {
          "indexed": true,
          "name": "enemyZombie",
          "type": "uint256"
        },
        {
          "indexed": false,
          "name": "attackSuccess",
          "type": "bool"
        }
      ],
      "name": "AttackResult",
      "type": "event"
    },
    {
      "anonymous": false,
      "inputs": [
        {
          "indexed": false,
          "name": "zombieId",
          "type": "uint256"
        },
        {
          "indexed": false,
          "name": "name",
          "type": "string"
        },
        {
          "indexed": false,
          "name": "dna",
          "type": "uint256"
        }
      ],
      "name": "NewZombie",
      "type": "event"
    },
    {
      "anonymous": false,
      "inputs": [
        {
          "indexed": true,
          "name": "previousOwner",
          "type": "address"
        },
        {
          "indexed": true,
          "name": "newOwner",
          "type": "address"
        }
      ],
      "name": "OwnershipTransferred",
      "type": "event"
    },
    {
      "constant": true,
      "inputs": [
        {
          "name": "_owner",
          "type": "address"
        }
      ],
      "name": "balanceOf",
      "outputs": [
        {
          "name": "_balance",
          "type": "uint256"
        }
      ],
      "payable": false,
      "stateMutability": "view",
      "type": "function"
    },
    {
      "constant": true,
      "inputs": [
        {
          "name": "_tokenId",
          "type": "uint256"
        }
      ],
      "name": "ownerOf",
      "outputs": [
        {
          "name": "_owner",
          "type": "address"
        }
      ],
      "payable": false,
      "stateMutability": "view",
      "type": "function"
    },
    {
      "constant": false,
      "inputs": [
        {
          "name": "_to",
          "type": "address"
        },
        {
          "name": "_tokenId",
          "type": "uint256"
        }
      ],
      "name": "transfer",
      "outputs": [],
      "payable": false,
      "stateMutability": "nonpayable",
      "type": "function"
    },
    {
      "constant": false,
      "inputs": [
        {
          "name": "_to",
          "type": "address"
        },
        {
          "name": "_tokenId",
          "type": "uint256"
        }
      ],
      "name": "approve",
      "outputs": [],
      "payable": false,
      "stateMutability": "nonpayable",
      "type": "function"
    },
    {
      "constant": false,
      "inputs": [
        {
          "name": "_tokenId",
          "type": "uint256"
        }
      ],
      "name": "takeOwnership",
      "outputs": [],
      "payable": false,
      "stateMutability": "nonpayable",
      "type": "function"
    }
  ],
  "bytecode": "0x60606040526010600155600154600a0a6002556201518060035566038d7ea4c6800060085560006009556046600a55336000806101000a81548173ffffffffffffffffffffffffffffffffffffffff021916908373ffffffffffffffffffffffffffffffffffffffff16021790555061209c8061007d6000396000f300606060405260043610610107576000357c0100000000000000000000000000000000000000000000000000000000900463ffffffff168063095ea7b31461010c5780630ce90ec21461014e57806317a7f4cc146101665780632052465e146101925780633ccfd60b146102965780634412e104146102ab578063528b7b8f146103395780635f4623f11461039c5780635faf2880146103d55780636352211e1461040157806370a08231146104645780637bff0a01146104b15780638da5cb5b1461050e578063a9059cbb14610563578063b2e6ceeb146105a5578063c39cbef1146105c8578063ccf670f8146105ff578063e1fa763814610622578063f2fde38b1461064e575b600080fd5b341561011757600080fd5b61014c600480803573ffffffffffffffffffffffffffffffffffffffff16906020019091908035906020019091905050610687565b005b61016460048080359060200190919050506107b1565b005b341561017157600080fd5b6101906004808035906020019091908035906020019091905050610852565b005b341561019d57600080fd5b6101b360048080359060200190919050506109bf565b60405180806020018781526020018663ffffffff1663ffffffff1681526020018563ffffffff1663ffffffff1681526020018461ffff1661ffff1681526020018361ffff1661ffff1681526020018281038252888181546001816001161561010002031660029004815260200191508054600181600116156101000203166002900480156102825780601f1061025757610100808354040283529160200191610282565b820191906000526020600020905b81548152906001019060200180831161026557829003601f168201915b505097505050505050505060405180910390f35b34156102a157600080fd5b6102a9610a45565b005b34156102b657600080fd5b6102e2600480803573ffffffffffffffffffffffffffffffffffffffff16906020019091905050610b1a565b6040518080602001828103825283818151815260200191508051906020019060200280838360005b8381101561032557808201518184015260208101905061030a565b505050509050019250505060405180910390f35b341561034457600080fd5b61035a6004808035906020019091905050610c48565b604051808273ffffffffffffffffffffffffffffffffffffffff1673ffffffffffffffffffffffffffffffffffffffff16815260200191505060405180910390f35b34156103a757600080fd5b6103d3600480803573ffffffffffffffffffffffffffffffffffffffff16906020019091905050610c7b565b005b34156103e057600080fd5b6103ff6004808035906020019091908035906020019091905050610d1a565b005b341561040c57600080fd5b6104226004808035906020019091905050610dfc565b604051808273ffffffffffffffffffffffffffffffffffffffff1673ffffffffffffffffffffffffffffffffffffffff16815260200191505060405180910390f35b341561046f57600080fd5b61049b600480803573ffffffffffffffffffffffffffffffffffffffff16906020019091905050610e39565b6040518082815260200191505060405180910390f35b34156104bc57600080fd5b61050c600480803590602001908201803590602001908080601f01602080910402602001604051908101604052809392919081815260200183838082843782019150505050505091905050610e82565b005b341561051957600080fd5b610521610efb565b604051808273ffffffffffffffffffffffffffffffffffffffff1673ffffffffffffffffffffffffffffffffffffffff16815260200191505060405180910390f35b341561056e57600080fd5b6105a3600480803573ffffffffffffffffffffffffffffffffffffffff16906020019091908035906020019091905050610f20565b005b34156105b057600080fd5b6105c66004808035906020019091905050610f9e565b005b34156105d357600080fd5b6105fd60048080359060200190919080359060200190820180359060200191909192905050611027565b005b341561060a57600080fd5b6106206004808035906020019091905050611115565b005b341561062d57600080fd5b61064c600480803590602001909190803590602001909190505061117a565b005b341561065957600080fd5b610685600480803573ffffffffffffffffffffffffffffffffffffffff1690602001909190505061145c565b005b806005600082815260200190815260200160002060009054906101000a900473ffffffffffffffffffffffffffffffffffffffff1673ffffffffffffffffffffffffffffffffffffffff163373ffffffffffffffffffffffffffffffffffffffff161415156106f557600080fd5b82600c600084815260200190815260200160002060006101000a81548173ffffffffffffffffffffffffffffffffffffffff021916908373ffffffffffffffffffffffffffffffffffffffff1602179055508273ffffffffffffffffffffffffffffffffffffffff163373ffffffffffffffffffffffffffffffffffffffff167f8c5be1e5ebec7d5bd14f71427d1e84f3dd0314c0f7b2291e5b200ac8c7c3b925846040518082815260200191505060405180910390a3505050565b6000600854341415156107c357600080fd5b61080d60016004848154811015156107d757fe5b906000526020600020906003020160020160009054906101000a900463ffffffff1663ffffffff166115b190919063ffffffff16565b90508060048381548110151561081f57fe5b906000526020600020906003020160020160006101000a81548163ffffffff021916908363ffffffff1602179055505050565b6000600760009054906101000a900473ffffffffffffffffffffffffffffffffffffffff1673ffffffffffffffffffffffffffffffffffffffff1663e98b7f4d83600060405161014001526040518263ffffffff167c01000000000000000000000000000000000000000000000000000000000281526004018082815260200191505061014060405180830381600087803b15156108ef57600080fd5b6102c65a03f1151561090057600080fd5b50505060405180519060200180519060200180519060200180519060200180519060200180519060200180519060200180519060200180519060200180519050909192939495969798509091929394959697509091929394959650909192939495509091929394509091929350909192509091509050809150506109ba83826040805190810160405280600581526020017f6b697474790000000000000000000000000000000000000000000000000000008152506115db565b505050565b6004818154811015156109ce57fe5b906000526020600020906003020160009150905080600001908060010154908060020160009054906101000a900463ffffffff16908060020160049054906101000a900463ffffffff16908060020160089054906101000a900461ffff169080600201600a9054906101000a900461ffff16905086565b6000809054906101000a900473ffffffffffffffffffffffffffffffffffffffff1673ffffffffffffffffffffffffffffffffffffffff163373ffffffffffffffffffffffffffffffffffffffff16141515610aa057600080fd5b6000809054906101000a900473ffffffffffffffffffffffffffffffffffffffff1673ffffffffffffffffffffffffffffffffffffffff166108fc3073ffffffffffffffffffffffffffffffffffffffff16319081150290604051600060405180830381858888f193505050501515610b1857600080fd5b565b610b22611e2e565b610b2a611e2e565b600080600660008673ffffffffffffffffffffffffffffffffffffffff1673ffffffffffffffffffffffffffffffffffffffff16815260200190815260200160002054604051805910610b7a5750595b9080825280602002602001820160405250925060009150600090505b600480549050811015610c3d578473ffffffffffffffffffffffffffffffffffffffff166005600083815260200190815260200160002060009054906101000a900473ffffffffffffffffffffffffffffffffffffffff1673ffffffffffffffffffffffffffffffffffffffff161415610c3057808383815181101515610c1957fe5b906020019060200201818152505081806001019250505b8080600101915050610b96565b829350505050919050565b60056020528060005260406000206000915054906101000a900473ffffffffffffffffffffffffffffffffffffffff1681565b6000809054906101000a900473ffffffffffffffffffffffffffffffffffffffff1673ffffffffffffffffffffffffffffffffffffffff163373ffffffffffffffffffffffffffffffffffffffff16141515610cd657600080fd5b80600760006101000a81548173ffffffffffffffffffffffffffffffffffffffff021916908373ffffffffffffffffffffffffffffffffffffffff16021790555050565b60148281600482815481101515610d2d57fe5b906000526020600020906003020160020160009054906101000a900463ffffffff1663ffffffff1610151515610d6257600080fd5b836005600082815260200190815260200160002060009054906101000a900473ffffffffffffffffffffffffffffffffffffffff1673ffffffffffffffffffffffffffffffffffffffff163373ffffffffffffffffffffffffffffffffffffffff16141515610dd057600080fd5b83600486815481101515610de057fe5b9060005260206000209060030201600101819055505050505050565b60006005600083815260200190815260200160002060009054906101000a900473ffffffffffffffffffffffffffffffffffffffff169050919050565b6000600660008373ffffffffffffffffffffffffffffffffffffffff1673ffffffffffffffffffffffffffffffffffffffff168152602001908152602001600020549050919050565b600080600660003373ffffffffffffffffffffffffffffffffffffffff1673ffffffffffffffffffffffffffffffffffffffff16815260200190815260200160002054141515610ed157600080fd5b610eda826117b0565b9050606481811515610ee857fe5b0681039050610ef78282611832565b5050565b6000809054906101000a900473ffffffffffffffffffffffffffffffffffffffff1681565b806005600082815260200190815260200160002060009054906101000a900473ffffffffffffffffffffffffffffffffffffffff1673ffffffffffffffffffffffffffffffffffffffff163373ffffffffffffffffffffffffffffffffffffffff16141515610f8e57600080fd5b610f99338484611b01565b505050565b60003373ffffffffffffffffffffffffffffffffffffffff16600c600084815260200190815260200160002060009054906101000a900473ffffffffffffffffffffffffffffffffffffffff1673ffffffffffffffffffffffffffffffffffffffff1614151561100d57600080fd5b61101682610dfc565b9050611023813384611b01565b5050565b6002838160048281548110151561103a57fe5b906000526020600020906003020160020160009054906101000a900463ffffffff1663ffffffff161015151561106f57600080fd5b846005600082815260200190815260200160002060009054906101000a900473ffffffffffffffffffffffffffffffffffffffff1673ffffffffffffffffffffffffffffffffffffffff163373ffffffffffffffffffffffffffffffffffffffff161415156110dd57600080fd5b84846004888154811015156110ee57fe5b9060005260206000209060030201600001919061110c929190611e42565b50505050505050565b6000809054906101000a900473ffffffffffffffffffffffffffffffffffffffff1673ffffffffffffffffffffffffffffffffffffffff163373ffffffffffffffffffffffffffffffffffffffff1614151561117057600080fd5b8060088190555050565b6000806000846005600082815260200190815260200160002060009054906101000a900473ffffffffffffffffffffffffffffffffffffffff1673ffffffffffffffffffffffffffffffffffffffff163373ffffffffffffffffffffffffffffffffffffffff161415156111ed57600080fd5b6004868154811015156111fc57fe5b9060005260206000209060030201935060048581548110151561121b57fe5b906000526020600020906003020192506112356064611ce9565b9150600a54821115156113755783600201600881819054906101000a900461ffff168092919060010191906101000a81548161ffff021916908361ffff160217905550506112a760018560020160009054906101000a900463ffffffff1663ffffffff166115b190919063ffffffff16565b8460020160006101000a81548163ffffffff021916908363ffffffff1602179055506112f3600184600201600a9054906101000a900461ffff1661ffff16611d8090919063ffffffff16565b83600201600a6101000a81548161ffff021916908361ffff1602179055506001600b60006101000a81548160ff0219169083151502179055506113708684600101546040805190810160405280600681526020017f7a6f6d62696500000000000000000000000000000000000000000000000000008152506115db565b611408565b83600201600a81819054906101000a900461ffff168092919060010191906101000a81548161ffff021916908361ffff1602179055505082600201600881819054906101000a900461ffff168092919060010191906101000a81548161ffff021916908361ffff160217905550506000600b60006101000a81548160ff02191690831515021790555061140784611da6565b5b84867f62e95de997a5e59baaf3b3561de85a4b33ba194659ced4daeb93523e0dd27a65600b60009054906101000a900460ff16604051808215151515815260200191505060405180910390a3505050505050565b6000809054906101000a900473ffffffffffffffffffffffffffffffffffffffff1673ffffffffffffffffffffffffffffffffffffffff163373ffffffffffffffffffffffffffffffffffffffff161415156114b757600080fd5b600073ffffffffffffffffffffffffffffffffffffffff168173ffffffffffffffffffffffffffffffffffffffff16141515156114f357600080fd5b8073ffffffffffffffffffffffffffffffffffffffff166000809054906101000a900473ffffffffffffffffffffffffffffffffffffffff1673ffffffffffffffffffffffffffffffffffffffff167f8be0079c531659141344cd1fd0a4f28419497f9722a3daafe3b4186f6b6457e060405160405180910390a3806000806101000a81548173ffffffffffffffffffffffffffffffffffffffff021916908373ffffffffffffffffffffffffffffffffffffffff16021790555050565b60008082840190508363ffffffff168163ffffffff16101515156115d157fe5b8091505092915050565b600080846005600082815260200190815260200160002060009054906101000a900473ffffffffffffffffffffffffffffffffffffffff1673ffffffffffffffffffffffffffffffffffffffff163373ffffffffffffffffffffffffffffffffffffffff1614151561164c57600080fd5b60048681548110151561165b57fe5b9060005260206000209060030201925061167483611dd0565b151561167f57600080fd5b6002548581151561168c57fe5b0694506002858460010154018115156116a157fe5b04915060405180807f6b697474790000000000000000000000000000000000000000000000000000008152506005019050604051809103902060001916846040518082805190602001908083835b60208310151561171457805182526020820191506020810190506020830392506116ef565b6001836020036101000a038019825116818451168082178552505050505050905001915050604051809103902060001916141561176057606360648381151561175957fe5b0683030191505b61179f6040805190810160405280600681526020017f4e6f4e616d65000000000000000000000000000000000000000000000000000081525083611832565b6117a883611da6565b505050505050565b600080826040518082805190602001908083835b6020831015156117e957805182526020820191506020810190506020830392506117c4565b6001836020036101000a03801982511681845116808217855250505050505090500191505060405180910390206001900490506002548181151561182957fe5b06915050919050565b600060016004805480600101828161184a9190611ec2565b9160005260206000209060030201600060c060405190810160405280888152602001878152602001600163ffffffff168152602001600354420163ffffffff168152602001600061ffff168152602001600061ffff16815250909190915060008201518160000190805190602001906118c4929190611ef4565b506020820151816001015560408201518160020160006101000a81548163ffffffff021916908363ffffffff16021790555060608201518160020160046101000a81548163ffffffff021916908363ffffffff16021790555060808201518160020160086101000a81548161ffff021916908361ffff16021790555060a082015181600201600a6101000a81548161ffff021916908361ffff1602179055505050039050336005600083815260200190815260200160002060006101000a81548173ffffffffffffffffffffffffffffffffffffffff021916908373ffffffffffffffffffffffffffffffffffffffff160217905550611a0d6001600660003373ffffffffffffffffffffffffffffffffffffffff1673ffffffffffffffffffffffffffffffffffffffff16815260200190815260200160002054611df790919063ffffffff16565b600660003373ffffffffffffffffffffffffffffffffffffffff1673ffffffffffffffffffffffffffffffffffffffff168152602001908152602001600020819055507f88f026aacbbecc90c18411df4b1185fd8d9be2470f1962f192bf84a27d0704b78184846040518084815260200180602001838152602001828103825284818151815260200191508051906020019080838360005b83811015611ac0578082015181840152602081019050611aa5565b50505050905090810190601f168015611aed5780820380516001836020036101000a031916815260200191505b5094505050505060405180910390a1505050565b611b546001600660008573ffffffffffffffffffffffffffffffffffffffff1673ffffffffffffffffffffffffffffffffffffffff16815260200190815260200160002054611df790919063ffffffff16565b600660008473ffffffffffffffffffffffffffffffffffffffff1673ffffffffffffffffffffffffffffffffffffffff16815260200190815260200160002081905550611bea6001600660008673ffffffffffffffffffffffffffffffffffffffff1673ffffffffffffffffffffffffffffffffffffffff16815260200190815260200160002054611e1590919063ffffffff16565b600660008573ffffffffffffffffffffffffffffffffffffffff1673ffffffffffffffffffffffffffffffffffffffff16815260200190815260200160002081905550816005600083815260200190815260200160002060006101000a81548173ffffffffffffffffffffffffffffffffffffffff021916908373ffffffffffffffffffffffffffffffffffffffff1602179055508173ffffffffffffffffffffffffffffffffffffffff168373ffffffffffffffffffffffffffffffffffffffff167fddf252ad1be2c89b69c2b068fc378daa952ba7f163c4a11628f55a4df523b3ef836040518082815260200191505060405180910390a3505050565b6000611d016001600954611df790919063ffffffff16565b600981905550814233600954604051808481526020018373ffffffffffffffffffffffffffffffffffffffff1673ffffffffffffffffffffffffffffffffffffffff166c010000000000000000000000000281526014018281526020019350505050604051809103902060019004811515611d7857fe5b069050919050565b60008082840190508361ffff168161ffff1610151515611d9c57fe5b8091505092915050565b60035442018160020160046101000a81548163ffffffff021916908363ffffffff16021790555050565b6000428260020160049054906101000a900463ffffffff1663ffffffff1611159050919050565b6000808284019050838110151515611e0b57fe5b8091505092915050565b6000828211151515611e2357fe5b818303905092915050565b602060405190810160405280600081525090565b828054600181600116156101000203166002900490600052602060002090601f016020900481019282601f10611e8357803560ff1916838001178555611eb1565b82800160010185558215611eb1579182015b82811115611eb0578235825591602001919060010190611e95565b5b509050611ebe9190611f74565b5090565b815481835581811511611eef57600302816003028360005260206000209182019101611eee9190611f99565b5b505050565b828054600181600116156101000203166002900490600052602060002090601f016020900481019282601f10611f3557805160ff1916838001178555611f63565b82800160010185558215611f63579182015b82811115611f62578251825591602001919060010190611f47565b5b509050611f709190611f74565b5090565b611f9691905b80821115611f92576000816000905550600101611f7a565b5090565b90565b61202591905b808211156120215760008082016000611fb89190612028565b60018201600090556002820160006101000a81549063ffffffff02191690556002820160046101000a81549063ffffffff02191690556002820160086101000a81549061ffff021916905560028201600a6101000a81549061ffff021916905550600301611f9f565b5090565b90565b50805460018160011615610100020316600290046000825580601f1061204e575061206d565b601f01602090049060005260206000209081019061206c9190611f74565b5b505600a165627a7a72305820b33d0f7010f5d412776a435685827a2f4307bfbdb4dfc07bd640e12a56619a570029",
  "source": "pragma solidity ^0.4.19;\n\nimport \"./zombieattack.sol\";\nimport \"./erc721.sol\";\nimport \"./safemath.sol\";\n\n/**\n * @title ZombieOwnership\n */\ncontract ZombieOwnership is ZombieBattle, ERC721 {\n  \n  using SafeMath for uint256; \n  \n  // Takes uint zombieId and returns approved owner address\n  mapping (uint => address) zombieApprovals;\n  \n  /**\n  * @dev Function to get number of zombies owned by owner.\n  * @param _owner The address of owner.\n  * @return  _balance The zombie count of that ouwner\n  */\n  function balanceOf(address _owner) public view returns (uint256 _balance) {\n    return ownerZombieCount[_owner];\n  }\n  \n  /**\n  * @dev Function to get owner of zombie.\n  * @param _tokenId The uint256 id of zombie.\n  * @return  _owner The address of owner\n  */  \n  function ownerOf(uint256 _tokenId) public view returns (address _owner) {\n    return zombieToOwner[_tokenId];\n  }\n  \n  /**\n  * @dev Internal function to transfer zombie \n  * @param _from The address of transferor.\n  * @param _to The address of recipient.\n  * @param _tokenId The id of the zombie\n  */  \n  function _transfer(address _from, address _to, uint256 _tokenId) private {\n    ownerZombieCount[_to] = ownerZombieCount[_to].add(1);\n    ownerZombieCount[_from] = ownerZombieCount[_from].sub(1);\n    zombieToOwner[_tokenId] = _to;\n    \n    Transfer(_from, _to, _tokenId);\n  }\n  \n  /**\n  * @dev Function to transfer zombie \n  * @param _to The address of recipient.\n  * @param _tokenId The uint256 id of the zombie\n  */    \n  function transfer(address _to, uint256 _tokenId) public onlyOwnerOf(_tokenId) {\n    _transfer(msg.sender, _to, _tokenId);\n  }\n  \n  /**\n  * @dev Function for owner to approve transfer of zombie \n  * @param _to The address of recipient.\n  * @param _tokenId The id of the zombie\n  */    \n  function approve(address _to, uint256 _tokenId) public onlyOwnerOf(_tokenId) {\n    zombieApprovals[_tokenId] = _to;\n    \n    Approval(msg.sender, _to, _tokenId);\n  }\n  \n  /**\n  * @dev Function for recipient to take ownership of zombie \n  * @param _tokenId The id of the zombie\n  * @dev Requires sender to be approved for that zombie\n  */    \n  function takeOwnership(uint256 _tokenId) public {\n    require(zombieApprovals[_tokenId] == msg.sender);\n    \n    address owner = ownerOf(_tokenId);\n    _transfer(owner, msg.sender, _tokenId);\n  }\n}\n",
  "sourcePath": "D:\\coDe\\cryptozombies\\ethereum\\contracts\\zombieownership.sol",
  "compiler": {
    "name": "solc",
    "version": "0.4.19+commit.c4cbbb05.Emscripten.clang"
  },
  "schemaVersion": "2.0.0",
  "updatedAt": "2018-04-15T15:53:54.009Z"
}