{
  "contractName": "ZombieBattle",
  "abi": [
    {
      "constant": false,
      "inputs": [
        {
          "name": "_zombieId",
          "type": "uint256"
        }
      ],
      "name": "levelUp",
      "outputs": [],
      "payable": true,
      "stateMutability": "payable",
      "type": "function"
    },
    {
      "constant": false,
      "inputs": [
        {
          "name": "_zombieId",
          "type": "uint256"
        },
        {
          "name": "_kittyId",
          "type": "uint256"
        }
      ],
      "name": "feedOnKitty",
      "outputs": [],
      "payable": false,
      "stateMutability": "nonpayable",
      "type": "function"
    },
    {
      "constant": true,
      "inputs": [
        {
          "name": "",
          "type": "uint256"
        }
      ],
      "name": "zombies",
      "outputs": [
        {
          "name": "name",
          "type": "string"
        },
        {
          "name": "dna",
          "type": "uint256"
        },
        {
          "name": "level",
          "type": "uint32"
        },
        {
          "name": "readyTime",
          "type": "uint32"
        },
        {
          "name": "winCount",
          "type": "uint16"
        },
        {
          "name": "lossCount",
          "type": "uint16"
        }
      ],
      "payable": false,
      "stateMutability": "view",
      "type": "function"
    },
    {
      "constant": false,
      "inputs": [],
      "name": "withdraw",
      "outputs": [],
      "payable": false,
      "stateMutability": "nonpayable",
      "type": "function"
    },
    {
      "constant": true,
      "inputs": [
        {
          "name": "_owner",
          "type": "address"
        }
      ],
      "name": "getZombiesByOwner",
      "outputs": [
        {
          "name": "",
          "type": "uint256[]"
        }
      ],
      "payable": false,
      "stateMutability": "view",
      "type": "function"
    },
    {
      "constant": true,
      "inputs": [
        {
          "name": "",
          "type": "uint256"
        }
      ],
      "name": "zombieToOwner",
      "outputs": [
        {
          "name": "",
          "type": "address"
        }
      ],
      "payable": false,
      "stateMutability": "view",
      "type": "function"
    },
    {
      "constant": false,
      "inputs": [
        {
          "name": "_address",
          "type": "address"
        }
      ],
      "name": "setKittyContractAddress",
      "outputs": [],
      "payable": false,
      "stateMutability": "nonpayable",
      "type": "function"
    },
    {
      "constant": false,
      "inputs": [
        {
          "name": "_zombieId",
          "type": "uint256"
        },
        {
          "name": "_newDna",
          "type": "uint256"
        }
      ],
      "name": "changeDna",
      "outputs": [],
      "payable": false,
      "stateMutability": "nonpayable",
      "type": "function"
    },
    {
      "constant": false,
      "inputs": [
        {
          "name": "_name",
          "type": "string"
        }
      ],
      "name": "createRandomZombie",
      "outputs": [],
      "payable": false,
      "stateMutability": "nonpayable",
      "type": "function"
    },
    {
      "constant": true,
      "inputs": [],
      "name": "owner",
      "outputs": [
        {
          "name": "",
          "type": "address"
        }
      ],
      "payable": false,
      "stateMutability": "view",
      "type": "function"
    },
    {
      "constant": false,
      "inputs": [
        {
          "name": "_zombieId",
          "type": "uint256"
        },
        {
          "name": "_newName",
          "type": "string"
        }
      ],
      "name": "changeName",
      "outputs": [],
      "payable": false,
      "stateMutability": "nonpayable",
      "type": "function"
    },
    {
      "constant": false,
      "inputs": [
        {
          "name": "_fee",
          "type": "uint256"
        }
      ],
      "name": "setLevelUpFee",
      "outputs": [],
      "payable": false,
      "stateMutability": "nonpayable",
      "type": "function"
    },
    {
      "constant": false,
      "inputs": [
        {
          "name": "newOwner",
          "type": "address"
        }
      ],
      "name": "transferOwnership",
      "outputs": [],
      "payable": false,
      "stateMutability": "nonpayable",
      "type": "function"
    },
    {
      "anonymous": false,
      "inputs": [
        {
          "indexed": true,
          "name": "attackingZombie",
          "type": "uint256"
        },
        {
          "indexed": true,
          "name": "enemyZombie",
          "type": "uint256"
        },
        {
          "indexed": false,
          "name": "attackSuccess",
          "type": "bool"
        }
      ],
      "name": "AttackResult",
      "type": "event"
    },
    {
      "anonymous": false,
      "inputs": [
        {
          "indexed": false,
          "name": "zombieId",
          "type": "uint256"
        },
        {
          "indexed": false,
          "name": "name",
          "type": "string"
        },
        {
          "indexed": false,
          "name": "dna",
          "type": "uint256"
        }
      ],
      "name": "NewZombie",
      "type": "event"
    },
    {
      "anonymous": false,
      "inputs": [
        {
          "indexed": true,
          "name": "previousOwner",
          "type": "address"
        },
        {
          "indexed": true,
          "name": "newOwner",
          "type": "address"
        }
      ],
      "name": "OwnershipTransferred",
      "type": "event"
    },
    {
      "constant": false,
      "inputs": [
        {
          "name": "_zombieId",
          "type": "uint256"
        },
        {
          "name": "_targetId",
          "type": "uint256"
        }
      ],
      "name": "attack",
      "outputs": [],
      "payable": false,
      "stateMutability": "nonpayable",
      "type": "function"
    }
  ],
  "bytecode": "0x60606040526010600155600154600a0a6002556201518060035566038d7ea4c6800060085560006009556046600a55336000806101000a81548173ffffffffffffffffffffffffffffffffffffffff021916908373ffffffffffffffffffffffffffffffffffffffff160217905550611a568061007d6000396000f3006060604052600436106100d0576000357c0100000000000000000000000000000000000000000000000000000000900463ffffffff1680630ce90ec2146100d557806317a7f4cc146100ed5780632052465e146101195780633ccfd60b1461021d5780634412e10414610232578063528b7b8f146102c05780635f4623f1146103235780635faf28801461035c5780637bff0a01146103885780638da5cb5b146103e5578063c39cbef11461043a578063ccf670f814610471578063e1fa763814610494578063f2fde38b146104c0575b600080fd5b6100eb60048080359060200190919050506104f9565b005b34156100f857600080fd5b610117600480803590602001909190803590602001909190505061059a565b005b341561012457600080fd5b61013a6004808035906020019091905050610707565b60405180806020018781526020018663ffffffff1663ffffffff1681526020018563ffffffff1663ffffffff1681526020018461ffff1661ffff1681526020018361ffff1661ffff1681526020018281038252888181546001816001161561010002031660029004815260200191508054600181600116156101000203166002900480156102095780601f106101de57610100808354040283529160200191610209565b820191906000526020600020905b8154815290600101906020018083116101ec57829003601f168201915b505097505050505050505060405180910390f35b341561022857600080fd5b61023061078d565b005b341561023d57600080fd5b610269600480803573ffffffffffffffffffffffffffffffffffffffff16906020019091905050610862565b6040518080602001828103825283818151815260200191508051906020019060200280838360005b838110156102ac578082015181840152602081019050610291565b505050509050019250505060405180910390f35b34156102cb57600080fd5b6102e16004808035906020019091905050610990565b604051808273ffffffffffffffffffffffffffffffffffffffff1673ffffffffffffffffffffffffffffffffffffffff16815260200191505060405180910390f35b341561032e57600080fd5b61035a600480803573ffffffffffffffffffffffffffffffffffffffff169060200190919050506109c3565b005b341561036757600080fd5b6103866004808035906020019091908035906020019091905050610a62565b005b341561039357600080fd5b6103e3600480803590602001908201803590602001908080601f01602080910402602001604051908101604052809392919081815260200183838082843782019150505050505091905050610b44565b005b34156103f057600080fd5b6103f8610bbd565b604051808273ffffffffffffffffffffffffffffffffffffffff1673ffffffffffffffffffffffffffffffffffffffff16815260200191505060405180910390f35b341561044557600080fd5b61046f60048080359060200190919080359060200190820180359060200191909192905050610be2565b005b341561047c57600080fd5b6104926004808035906020019091905050610cd0565b005b341561049f57600080fd5b6104be6004808035906020019091908035906020019091905050610d35565b005b34156104cb57600080fd5b6104f7600480803573ffffffffffffffffffffffffffffffffffffffff16906020019091905050611017565b005b60006008543414151561050b57600080fd5b610555600160048481548110151561051f57fe5b906000526020600020906003020160020160009054906101000a900463ffffffff1663ffffffff1661116c90919063ffffffff16565b90508060048381548110151561056757fe5b906000526020600020906003020160020160006101000a81548163ffffffff021916908363ffffffff1602179055505050565b6000600760009054906101000a900473ffffffffffffffffffffffffffffffffffffffff1673ffffffffffffffffffffffffffffffffffffffff1663e98b7f4d83600060405161014001526040518263ffffffff167c01000000000000000000000000000000000000000000000000000000000281526004018082815260200191505061014060405180830381600087803b151561063757600080fd5b6102c65a03f1151561064857600080fd5b505050604051805190602001805190602001805190602001805190602001805190602001805190602001805190602001805190602001805190602001805190509091929394959697985090919293949596975090919293949596509091929394955090919293945090919293509091925090915090508091505061070283826040805190810160405280600581526020017f6b69747479000000000000000000000000000000000000000000000000000000815250611196565b505050565b60048181548110151561071657fe5b906000526020600020906003020160009150905080600001908060010154908060020160009054906101000a900463ffffffff16908060020160049054906101000a900463ffffffff16908060020160089054906101000a900461ffff169080600201600a9054906101000a900461ffff16905086565b6000809054906101000a900473ffffffffffffffffffffffffffffffffffffffff1673ffffffffffffffffffffffffffffffffffffffff163373ffffffffffffffffffffffffffffffffffffffff161415156107e857600080fd5b6000809054906101000a900473ffffffffffffffffffffffffffffffffffffffff1673ffffffffffffffffffffffffffffffffffffffff166108fc3073ffffffffffffffffffffffffffffffffffffffff16319081150290604051600060405180830381858888f19350505050151561086057600080fd5b565b61086a6117e8565b6108726117e8565b600080600660008673ffffffffffffffffffffffffffffffffffffffff1673ffffffffffffffffffffffffffffffffffffffff168152602001908152602001600020546040518059106108c25750595b9080825280602002602001820160405250925060009150600090505b600480549050811015610985578473ffffffffffffffffffffffffffffffffffffffff166005600083815260200190815260200160002060009054906101000a900473ffffffffffffffffffffffffffffffffffffffff1673ffffffffffffffffffffffffffffffffffffffff1614156109785780838381518110151561096157fe5b906020019060200201818152505081806001019250505b80806001019150506108de565b829350505050919050565b60056020528060005260406000206000915054906101000a900473ffffffffffffffffffffffffffffffffffffffff1681565b6000809054906101000a900473ffffffffffffffffffffffffffffffffffffffff1673ffffffffffffffffffffffffffffffffffffffff163373ffffffffffffffffffffffffffffffffffffffff16141515610a1e57600080fd5b80600760006101000a81548173ffffffffffffffffffffffffffffffffffffffff021916908373ffffffffffffffffffffffffffffffffffffffff16021790555050565b60148281600482815481101515610a7557fe5b906000526020600020906003020160020160009054906101000a900463ffffffff1663ffffffff1610151515610aaa57600080fd5b836005600082815260200190815260200160002060009054906101000a900473ffffffffffffffffffffffffffffffffffffffff1673ffffffffffffffffffffffffffffffffffffffff163373ffffffffffffffffffffffffffffffffffffffff16141515610b1857600080fd5b83600486815481101515610b2857fe5b9060005260206000209060030201600101819055505050505050565b600080600660003373ffffffffffffffffffffffffffffffffffffffff1673ffffffffffffffffffffffffffffffffffffffff16815260200190815260200160002054141515610b9357600080fd5b610b9c8261136b565b9050606481811515610baa57fe5b0681039050610bb982826113ed565b5050565b6000809054906101000a900473ffffffffffffffffffffffffffffffffffffffff1681565b60028381600482815481101515610bf557fe5b906000526020600020906003020160020160009054906101000a900463ffffffff1663ffffffff1610151515610c2a57600080fd5b846005600082815260200190815260200160002060009054906101000a900473ffffffffffffffffffffffffffffffffffffffff1673ffffffffffffffffffffffffffffffffffffffff163373ffffffffffffffffffffffffffffffffffffffff16141515610c9857600080fd5b8484600488815481101515610ca957fe5b90600052602060002090600302016000019190610cc79291906117fc565b50505050505050565b6000809054906101000a900473ffffffffffffffffffffffffffffffffffffffff1673ffffffffffffffffffffffffffffffffffffffff163373ffffffffffffffffffffffffffffffffffffffff16141515610d2b57600080fd5b8060088190555050565b6000806000846005600082815260200190815260200160002060009054906101000a900473ffffffffffffffffffffffffffffffffffffffff1673ffffffffffffffffffffffffffffffffffffffff163373ffffffffffffffffffffffffffffffffffffffff16141515610da857600080fd5b600486815481101515610db757fe5b90600052602060002090600302019350600485815481101515610dd657fe5b90600052602060002090600302019250610df060646116bc565b9150600a5482111515610f305783600201600881819054906101000a900461ffff168092919060010191906101000a81548161ffff021916908361ffff16021790555050610e6260018560020160009054906101000a900463ffffffff1663ffffffff1661116c90919063ffffffff16565b8460020160006101000a81548163ffffffff021916908363ffffffff160217905550610eae600184600201600a9054906101000a900461ffff1661ffff1661175390919063ffffffff16565b83600201600a6101000a81548161ffff021916908361ffff1602179055506001600b60006101000a81548160ff021916908315150217905550610f2b8684600101546040805190810160405280600681526020017f7a6f6d6269650000000000000000000000000000000000000000000000000000815250611196565b610fc3565b83600201600a81819054906101000a900461ffff168092919060010191906101000a81548161ffff021916908361ffff1602179055505082600201600881819054906101000a900461ffff168092919060010191906101000a81548161ffff021916908361ffff160217905550506000600b60006101000a81548160ff021916908315150217905550610fc284611779565b5b84867f62e95de997a5e59baaf3b3561de85a4b33ba194659ced4daeb93523e0dd27a65600b60009054906101000a900460ff16604051808215151515815260200191505060405180910390a3505050505050565b6000809054906101000a900473ffffffffffffffffffffffffffffffffffffffff1673ffffffffffffffffffffffffffffffffffffffff163373ffffffffffffffffffffffffffffffffffffffff1614151561107257600080fd5b600073ffffffffffffffffffffffffffffffffffffffff168173ffffffffffffffffffffffffffffffffffffffff16141515156110ae57600080fd5b8073ffffffffffffffffffffffffffffffffffffffff166000809054906101000a900473ffffffffffffffffffffffffffffffffffffffff1673ffffffffffffffffffffffffffffffffffffffff167f8be0079c531659141344cd1fd0a4f28419497f9722a3daafe3b4186f6b6457e060405160405180910390a3806000806101000a81548173ffffffffffffffffffffffffffffffffffffffff021916908373ffffffffffffffffffffffffffffffffffffffff16021790555050565b60008082840190508363ffffffff168163ffffffff161015151561118c57fe5b8091505092915050565b600080846005600082815260200190815260200160002060009054906101000a900473ffffffffffffffffffffffffffffffffffffffff1673ffffffffffffffffffffffffffffffffffffffff163373ffffffffffffffffffffffffffffffffffffffff1614151561120757600080fd5b60048681548110151561121657fe5b9060005260206000209060030201925061122f836117a3565b151561123a57600080fd5b6002548581151561124757fe5b06945060028584600101540181151561125c57fe5b04915060405180807f6b697474790000000000000000000000000000000000000000000000000000008152506005019050604051809103902060001916846040518082805190602001908083835b6020831015156112cf57805182526020820191506020810190506020830392506112aa565b6001836020036101000a038019825116818451168082178552505050505050905001915050604051809103902060001916141561131b57606360648381151561131457fe5b0683030191505b61135a6040805190810160405280600681526020017f4e6f4e616d650000000000000000000000000000000000000000000000000000815250836113ed565b61136383611779565b505050505050565b600080826040518082805190602001908083835b6020831015156113a4578051825260208201915060208101905060208303925061137f565b6001836020036101000a0380198251168184511680821785525050505050509050019150506040518091039020600190049050600254818115156113e457fe5b06915050919050565b6000600160048054806001018281611405919061187c565b9160005260206000209060030201600060c060405190810160405280888152602001878152602001600163ffffffff168152602001600354420163ffffffff168152602001600061ffff168152602001600061ffff168152509091909150600082015181600001908051906020019061147f9291906118ae565b506020820151816001015560408201518160020160006101000a81548163ffffffff021916908363ffffffff16021790555060608201518160020160046101000a81548163ffffffff021916908363ffffffff16021790555060808201518160020160086101000a81548161ffff021916908361ffff16021790555060a082015181600201600a6101000a81548161ffff021916908361ffff1602179055505050039050336005600083815260200190815260200160002060006101000a81548173ffffffffffffffffffffffffffffffffffffffff021916908373ffffffffffffffffffffffffffffffffffffffff1602179055506115c86001600660003373ffffffffffffffffffffffffffffffffffffffff1673ffffffffffffffffffffffffffffffffffffffff168152602001908152602001600020546117ca90919063ffffffff16565b600660003373ffffffffffffffffffffffffffffffffffffffff1673ffffffffffffffffffffffffffffffffffffffff168152602001908152602001600020819055507f88f026aacbbecc90c18411df4b1185fd8d9be2470f1962f192bf84a27d0704b78184846040518084815260200180602001838152602001828103825284818151815260200191508051906020019080838360005b8381101561167b578082015181840152602081019050611660565b50505050905090810190601f1680156116a85780820380516001836020036101000a031916815260200191505b5094505050505060405180910390a1505050565b60006116d460016009546117ca90919063ffffffff16565b600981905550814233600954604051808481526020018373ffffffffffffffffffffffffffffffffffffffff1673ffffffffffffffffffffffffffffffffffffffff166c01000000000000000000000000028152601401828152602001935050505060405180910390206001900481151561174b57fe5b069050919050565b60008082840190508361ffff168161ffff161015151561176f57fe5b8091505092915050565b60035442018160020160046101000a81548163ffffffff021916908363ffffffff16021790555050565b6000428260020160049054906101000a900463ffffffff1663ffffffff1611159050919050565b60008082840190508381101515156117de57fe5b8091505092915050565b602060405190810160405280600081525090565b828054600181600116156101000203166002900490600052602060002090601f016020900481019282601f1061183d57803560ff191683800117855561186b565b8280016001018555821561186b579182015b8281111561186a57823582559160200191906001019061184f565b5b509050611878919061192e565b5090565b8154818355818115116118a9576003028160030283600052602060002091820191016118a89190611953565b5b505050565b828054600181600116156101000203166002900490600052602060002090601f016020900481019282601f106118ef57805160ff191683800117855561191d565b8280016001018555821561191d579182015b8281111561191c578251825591602001919060010190611901565b5b50905061192a919061192e565b5090565b61195091905b8082111561194c576000816000905550600101611934565b5090565b90565b6119df91905b808211156119db576000808201600061197291906119e2565b60018201600090556002820160006101000a81549063ffffffff02191690556002820160046101000a81549063ffffffff02191690556002820160086101000a81549061ffff021916905560028201600a6101000a81549061ffff021916905550600301611959565b5090565b90565b50805460018160011615610100020316600290046000825580601f10611a085750611a27565b601f016020900490600052602060002090810190611a26919061192e565b5b505600a165627a7a7230582008afaec56b7192d7be627bc4b707bd81abe95f09c9310a3059ba9a21deb6c2ef0029",
  "source": "pragma solidity ^0.4.19;\n\nimport \"./zombiehelper.sol\";\n\n/**\n * @title ZombieBattle\n */\ncontract ZombieBattle is ZombieHelper {\n  // Emits results of the attack \n  event AttackResult(uint indexed attackingZombie, uint indexed enemyZombie, bool attackSuccess);\n  \n  // Initialize nonce used to generate pseudo-random modulus  \n  uint randNonce = 0;\n  // Set probability of attack success \n  uint attackVictoryProbability = 70;\n  // Initialize success flag\n  bool attackSuccess;\n\n  /**\n  * @dev Function to generate pseudo-random number representing attack results.\n  * @param _modulus Number used in rng process.\n  * @return pseudo-random uint.\n  */\n  function randMod(uint _modulus) internal returns(uint) {\n    randNonce = randNonce.add(1);\n    return uint(keccak256(now, msg.sender, randNonce)) % _modulus;\n  }\n  \n  /**\n  * @dev Function to simulate attack on another zombie and process results \n  * @param _zombieId The uint id of attacking zombie.\n  * @param _targetId The uint id of zombie target.\n  * @dev onlyOwnerOf restricts to owner of attacking zombie\n  */\n  function attack(uint _zombieId, uint _targetId) external onlyOwnerOf(_zombieId) {\n    // Save ids of attacker and target \n    Zombie storage myZombie = zombies[_zombieId];\n    Zombie storage enemyZombie = zombies[_targetId];\n    uint rand = randMod(100);\n    if (rand <= attackVictoryProbability) {\n      /* myZombie.winCount = myZombie.winCount.add(1); */\n      myZombie.winCount++;\n      myZombie.level = myZombie.level.add(1);\n      enemyZombie.lossCount = enemyZombie.lossCount.add(1);\n      attackSuccess = true;      \n      feedAndMultiply(_zombieId, enemyZombie.dna, \"zombie\");\n    } else {\n      myZombie.lossCount++;\n      enemyZombie.winCount++;\n      attackSuccess = false;\n      _triggerCooldown(myZombie);\n    }\n    \n    AttackResult(_zombieId, _targetId, attackSuccess);\n  }\n}\n",
  "sourcePath": "D:\\coDe\\cryptozombies\\ethereum\\contracts\\zombieattack.sol",
  "compiler": {
    "name": "solc",
    "version": "0.4.19+commit.c4cbbb05.Emscripten.clang"
  },
  "schemaVersion": "2.0.0",
  "updatedAt": "2018-04-15T15:53:53.286Z"
}