{
  "contractName": "ZombieHelper",
  "abi": [
    {
      "constant": false,
      "inputs": [
        {
          "name": "_zombieId",
          "type": "uint256"
        },
        {
          "name": "_kittyId",
          "type": "uint256"
        }
      ],
      "name": "feedOnKitty",
      "outputs": [],
      "payable": false,
      "stateMutability": "nonpayable",
      "type": "function"
    },
    {
      "constant": true,
      "inputs": [
        {
          "name": "",
          "type": "uint256"
        }
      ],
      "name": "zombies",
      "outputs": [
        {
          "name": "name",
          "type": "string"
        },
        {
          "name": "dna",
          "type": "uint256"
        },
        {
          "name": "level",
          "type": "uint32"
        },
        {
          "name": "readyTime",
          "type": "uint32"
        },
        {
          "name": "winCount",
          "type": "uint16"
        },
        {
          "name": "lossCount",
          "type": "uint16"
        }
      ],
      "payable": false,
      "stateMutability": "view",
      "type": "function"
    },
    {
      "constant": true,
      "inputs": [
        {
          "name": "",
          "type": "uint256"
        }
      ],
      "name": "zombieToOwner",
      "outputs": [
        {
          "name": "",
          "type": "address"
        }
      ],
      "payable": false,
      "stateMutability": "view",
      "type": "function"
    },
    {
      "constant": false,
      "inputs": [
        {
          "name": "_address",
          "type": "address"
        }
      ],
      "name": "setKittyContractAddress",
      "outputs": [],
      "payable": false,
      "stateMutability": "nonpayable",
      "type": "function"
    },
    {
      "constant": false,
      "inputs": [
        {
          "name": "_name",
          "type": "string"
        }
      ],
      "name": "createRandomZombie",
      "outputs": [],
      "payable": false,
      "stateMutability": "nonpayable",
      "type": "function"
    },
    {
      "constant": true,
      "inputs": [],
      "name": "owner",
      "outputs": [
        {
          "name": "",
          "type": "address"
        }
      ],
      "payable": false,
      "stateMutability": "view",
      "type": "function"
    },
    {
      "constant": false,
      "inputs": [
        {
          "name": "newOwner",
          "type": "address"
        }
      ],
      "name": "transferOwnership",
      "outputs": [],
      "payable": false,
      "stateMutability": "nonpayable",
      "type": "function"
    },
    {
      "anonymous": false,
      "inputs": [
        {
          "indexed": false,
          "name": "zombieId",
          "type": "uint256"
        },
        {
          "indexed": false,
          "name": "name",
          "type": "string"
        },
        {
          "indexed": false,
          "name": "dna",
          "type": "uint256"
        }
      ],
      "name": "NewZombie",
      "type": "event"
    },
    {
      "anonymous": false,
      "inputs": [
        {
          "indexed": true,
          "name": "previousOwner",
          "type": "address"
        },
        {
          "indexed": true,
          "name": "newOwner",
          "type": "address"
        }
      ],
      "name": "OwnershipTransferred",
      "type": "event"
    },
    {
      "constant": false,
      "inputs": [],
      "name": "withdraw",
      "outputs": [],
      "payable": false,
      "stateMutability": "nonpayable",
      "type": "function"
    },
    {
      "constant": false,
      "inputs": [
        {
          "name": "_zombieId",
          "type": "uint256"
        }
      ],
      "name": "levelUp",
      "outputs": [],
      "payable": true,
      "stateMutability": "payable",
      "type": "function"
    },
    {
      "constant": false,
      "inputs": [
        {
          "name": "_fee",
          "type": "uint256"
        }
      ],
      "name": "setLevelUpFee",
      "outputs": [],
      "payable": false,
      "stateMutability": "nonpayable",
      "type": "function"
    },
    {
      "constant": false,
      "inputs": [
        {
          "name": "_zombieId",
          "type": "uint256"
        },
        {
          "name": "_newName",
          "type": "string"
        }
      ],
      "name": "changeName",
      "outputs": [],
      "payable": false,
      "stateMutability": "nonpayable",
      "type": "function"
    },
    {
      "constant": false,
      "inputs": [
        {
          "name": "_zombieId",
          "type": "uint256"
        },
        {
          "name": "_newDna",
          "type": "uint256"
        }
      ],
      "name": "changeDna",
      "outputs": [],
      "payable": false,
      "stateMutability": "nonpayable",
      "type": "function"
    },
    {
      "constant": true,
      "inputs": [
        {
          "name": "_owner",
          "type": "address"
        }
      ],
      "name": "getZombiesByOwner",
      "outputs": [
        {
          "name": "",
          "type": "uint256[]"
        }
      ],
      "payable": false,
      "stateMutability": "view",
      "type": "function"
    }
  ],
  "bytecode": "0x60606040526010600155600154600a0a6002556201518060035566038d7ea4c68000600855336000806101000a81548173ffffffffffffffffffffffffffffffffffffffff021916908373ffffffffffffffffffffffffffffffffffffffff160217905550611680806100736000396000f3006060604052600436106100c5576000357c0100000000000000000000000000000000000000000000000000000000900463ffffffff1680630ce90ec2146100ca57806317a7f4cc146100e25780632052465e1461010e5780633ccfd60b146102125780634412e10414610227578063528b7b8f146102b55780635f4623f1146103185780635faf2880146103515780637bff0a011461037d5780638da5cb5b146103da578063c39cbef11461042f578063ccf670f814610466578063f2fde38b14610489575b600080fd5b6100e060048080359060200190919050506104c2565b005b34156100ed57600080fd5b61010c6004808035906020019091908035906020019091905050610563565b005b341561011957600080fd5b61012f60048080359060200190919050506106d0565b60405180806020018781526020018663ffffffff1663ffffffff1681526020018563ffffffff1663ffffffff1681526020018461ffff1661ffff1681526020018361ffff1661ffff1681526020018281038252888181546001816001161561010002031660029004815260200191508054600181600116156101000203166002900480156101fe5780601f106101d3576101008083540402835291602001916101fe565b820191906000526020600020905b8154815290600101906020018083116101e157829003601f168201915b505097505050505050505060405180910390f35b341561021d57600080fd5b610225610756565b005b341561023257600080fd5b61025e600480803573ffffffffffffffffffffffffffffffffffffffff1690602001909190505061082b565b6040518080602001828103825283818151815260200191508051906020019060200280838360005b838110156102a1578082015181840152602081019050610286565b505050509050019250505060405180910390f35b34156102c057600080fd5b6102d66004808035906020019091905050610959565b604051808273ffffffffffffffffffffffffffffffffffffffff1673ffffffffffffffffffffffffffffffffffffffff16815260200191505060405180910390f35b341561032357600080fd5b61034f600480803573ffffffffffffffffffffffffffffffffffffffff1690602001909190505061098c565b005b341561035c57600080fd5b61037b6004808035906020019091908035906020019091905050610a2b565b005b341561038857600080fd5b6103d8600480803590602001908201803590602001908080601f01602080910402602001604051908101604052809392919081815260200183838082843782019150505050505091905050610b0d565b005b34156103e557600080fd5b6103ed610b86565b604051808273ffffffffffffffffffffffffffffffffffffffff1673ffffffffffffffffffffffffffffffffffffffff16815260200191505060405180910390f35b341561043a57600080fd5b61046460048080359060200190919080359060200190820180359060200191909192905050610bab565b005b341561047157600080fd5b6104876004808035906020019091905050610c99565b005b341561049457600080fd5b6104c0600480803573ffffffffffffffffffffffffffffffffffffffff16906020019091905050610cfe565b005b6000600854341415156104d457600080fd5b61051e60016004848154811015156104e857fe5b906000526020600020906003020160020160009054906101000a900463ffffffff1663ffffffff16610e5390919063ffffffff16565b90508060048381548110151561053057fe5b906000526020600020906003020160020160006101000a81548163ffffffff021916908363ffffffff1602179055505050565b6000600760009054906101000a900473ffffffffffffffffffffffffffffffffffffffff1673ffffffffffffffffffffffffffffffffffffffff1663e98b7f4d83600060405161014001526040518263ffffffff167c01000000000000000000000000000000000000000000000000000000000281526004018082815260200191505061014060405180830381600087803b151561060057600080fd5b6102c65a03f1151561061157600080fd5b50505060405180519060200180519060200180519060200180519060200180519060200180519060200180519060200180519060200180519060200180519050909192939495969798509091929394959697509091929394959650909192939495509091929394509091929350909192509091509050809150506106cb83826040805190810160405280600581526020017f6b69747479000000000000000000000000000000000000000000000000000000815250610e7d565b505050565b6004818154811015156106df57fe5b906000526020600020906003020160009150905080600001908060010154908060020160009054906101000a900463ffffffff16908060020160049054906101000a900463ffffffff16908060020160089054906101000a900461ffff169080600201600a9054906101000a900461ffff16905086565b6000809054906101000a900473ffffffffffffffffffffffffffffffffffffffff1673ffffffffffffffffffffffffffffffffffffffff163373ffffffffffffffffffffffffffffffffffffffff161415156107b157600080fd5b6000809054906101000a900473ffffffffffffffffffffffffffffffffffffffff1673ffffffffffffffffffffffffffffffffffffffff166108fc3073ffffffffffffffffffffffffffffffffffffffff16319081150290604051600060405180830381858888f19350505050151561082957600080fd5b565b610833611412565b61083b611412565b600080600660008673ffffffffffffffffffffffffffffffffffffffff1673ffffffffffffffffffffffffffffffffffffffff1681526020019081526020016000205460405180591061088b5750595b9080825280602002602001820160405250925060009150600090505b60048054905081101561094e578473ffffffffffffffffffffffffffffffffffffffff166005600083815260200190815260200160002060009054906101000a900473ffffffffffffffffffffffffffffffffffffffff1673ffffffffffffffffffffffffffffffffffffffff1614156109415780838381518110151561092a57fe5b906020019060200201818152505081806001019250505b80806001019150506108a7565b829350505050919050565b60056020528060005260406000206000915054906101000a900473ffffffffffffffffffffffffffffffffffffffff1681565b6000809054906101000a900473ffffffffffffffffffffffffffffffffffffffff1673ffffffffffffffffffffffffffffffffffffffff163373ffffffffffffffffffffffffffffffffffffffff161415156109e757600080fd5b80600760006101000a81548173ffffffffffffffffffffffffffffffffffffffff021916908373ffffffffffffffffffffffffffffffffffffffff16021790555050565b60148281600482815481101515610a3e57fe5b906000526020600020906003020160020160009054906101000a900463ffffffff1663ffffffff1610151515610a7357600080fd5b836005600082815260200190815260200160002060009054906101000a900473ffffffffffffffffffffffffffffffffffffffff1673ffffffffffffffffffffffffffffffffffffffff163373ffffffffffffffffffffffffffffffffffffffff16141515610ae157600080fd5b83600486815481101515610af157fe5b9060005260206000209060030201600101819055505050505050565b600080600660003373ffffffffffffffffffffffffffffffffffffffff1673ffffffffffffffffffffffffffffffffffffffff16815260200190815260200160002054141515610b5c57600080fd5b610b6582611052565b9050606481811515610b7357fe5b0681039050610b8282826110d4565b5050565b6000809054906101000a900473ffffffffffffffffffffffffffffffffffffffff1681565b60028381600482815481101515610bbe57fe5b906000526020600020906003020160020160009054906101000a900463ffffffff1663ffffffff1610151515610bf357600080fd5b846005600082815260200190815260200160002060009054906101000a900473ffffffffffffffffffffffffffffffffffffffff1673ffffffffffffffffffffffffffffffffffffffff163373ffffffffffffffffffffffffffffffffffffffff16141515610c6157600080fd5b8484600488815481101515610c7257fe5b90600052602060002090600302016000019190610c90929190611426565b50505050505050565b6000809054906101000a900473ffffffffffffffffffffffffffffffffffffffff1673ffffffffffffffffffffffffffffffffffffffff163373ffffffffffffffffffffffffffffffffffffffff16141515610cf457600080fd5b8060088190555050565b6000809054906101000a900473ffffffffffffffffffffffffffffffffffffffff1673ffffffffffffffffffffffffffffffffffffffff163373ffffffffffffffffffffffffffffffffffffffff16141515610d5957600080fd5b600073ffffffffffffffffffffffffffffffffffffffff168173ffffffffffffffffffffffffffffffffffffffff1614151515610d9557600080fd5b8073ffffffffffffffffffffffffffffffffffffffff166000809054906101000a900473ffffffffffffffffffffffffffffffffffffffff1673ffffffffffffffffffffffffffffffffffffffff167f8be0079c531659141344cd1fd0a4f28419497f9722a3daafe3b4186f6b6457e060405160405180910390a3806000806101000a81548173ffffffffffffffffffffffffffffffffffffffff021916908373ffffffffffffffffffffffffffffffffffffffff16021790555050565b60008082840190508363ffffffff168163ffffffff1610151515610e7357fe5b8091505092915050565b600080846005600082815260200190815260200160002060009054906101000a900473ffffffffffffffffffffffffffffffffffffffff1673ffffffffffffffffffffffffffffffffffffffff163373ffffffffffffffffffffffffffffffffffffffff16141515610eee57600080fd5b600486815481101515610efd57fe5b90600052602060002090600302019250610f16836113a3565b1515610f2157600080fd5b60025485811515610f2e57fe5b069450600285846001015401811515610f4357fe5b04915060405180807f6b697474790000000000000000000000000000000000000000000000000000008152506005019050604051809103902060001916846040518082805190602001908083835b602083101515610fb65780518252602082019150602081019050602083039250610f91565b6001836020036101000a0380198251168184511680821785525050505050509050019150506040518091039020600019161415611002576063606483811515610ffb57fe5b0683030191505b6110416040805190810160405280600681526020017f4e6f4e616d650000000000000000000000000000000000000000000000000000815250836110d4565b61104a836113ca565b505050505050565b600080826040518082805190602001908083835b60208310151561108b5780518252602082019150602081019050602083039250611066565b6001836020036101000a0380198251168184511680821785525050505050509050019150506040518091039020600190049050600254818115156110cb57fe5b06915050919050565b60006001600480548060010182816110ec91906114a6565b9160005260206000209060030201600060c060405190810160405280888152602001878152602001600163ffffffff168152602001600354420163ffffffff168152602001600061ffff168152602001600061ffff16815250909190915060008201518160000190805190602001906111669291906114d8565b506020820151816001015560408201518160020160006101000a81548163ffffffff021916908363ffffffff16021790555060608201518160020160046101000a81548163ffffffff021916908363ffffffff16021790555060808201518160020160086101000a81548161ffff021916908361ffff16021790555060a082015181600201600a6101000a81548161ffff021916908361ffff1602179055505050039050336005600083815260200190815260200160002060006101000a81548173ffffffffffffffffffffffffffffffffffffffff021916908373ffffffffffffffffffffffffffffffffffffffff1602179055506112af6001600660003373ffffffffffffffffffffffffffffffffffffffff1673ffffffffffffffffffffffffffffffffffffffff168152602001908152602001600020546113f490919063ffffffff16565b600660003373ffffffffffffffffffffffffffffffffffffffff1673ffffffffffffffffffffffffffffffffffffffff168152602001908152602001600020819055507f88f026aacbbecc90c18411df4b1185fd8d9be2470f1962f192bf84a27d0704b78184846040518084815260200180602001838152602001828103825284818151815260200191508051906020019080838360005b83811015611362578082015181840152602081019050611347565b50505050905090810190601f16801561138f5780820380516001836020036101000a031916815260200191505b5094505050505060405180910390a1505050565b6000428260020160049054906101000a900463ffffffff1663ffffffff1611159050919050565b60035442018160020160046101000a81548163ffffffff021916908363ffffffff16021790555050565b600080828401905083811015151561140857fe5b8091505092915050565b602060405190810160405280600081525090565b828054600181600116156101000203166002900490600052602060002090601f016020900481019282601f1061146757803560ff1916838001178555611495565b82800160010185558215611495579182015b82811115611494578235825591602001919060010190611479565b5b5090506114a29190611558565b5090565b8154818355818115116114d3576003028160030283600052602060002091820191016114d2919061157d565b5b505050565b828054600181600116156101000203166002900490600052602060002090601f016020900481019282601f1061151957805160ff1916838001178555611547565b82800160010185558215611547579182015b8281111561154657825182559160200191906001019061152b565b5b5090506115549190611558565b5090565b61157a91905b8082111561157657600081600090555060010161155e565b5090565b90565b61160991905b80821115611605576000808201600061159c919061160c565b60018201600090556002820160006101000a81549063ffffffff02191690556002820160046101000a81549063ffffffff02191690556002820160086101000a81549061ffff021916905560028201600a6101000a81549061ffff021916905550600301611583565b5090565b90565b50805460018160011615610100020316600290046000825580601f106116325750611651565b601f0160209004906000526020600020908101906116509190611558565b5b505600a165627a7a7230582029595b40670831b5b003a61b3b75ab617547bd7cd7afeedaff0fae568d83178f0029",
  "source": "pragma solidity ^0.4.19;\n\nimport \"./zombiefeeding.sol\";\nimport \"./safemath.sol\";\n\n/**\n * @title ZombieHelper\n */\ncontract ZombieHelper is ZombieFeeding {\n\n  using SafeMath32 for uint256;\n  using SafeMath32 for uint32;\n  using SafeMath16 for uint16;\n\n  // Set level up fee\n  uint levelUpFee = 0.001 ether;\n  \n  /**\n  * @dev Modifier restriction to zombie of specified level.\n  * @param _level Level required for action.\n  * @param  _zombieId Id of Zombie involved.\n  */  \n  modifier aboveLevel(uint _level, uint _zombieId) {\n    require(zombies[_zombieId].level >= _level);\n    _;\n  }\n\n  /**\n  * @dev Function allowing owner to withdraw contract balance.\n  */\n  function withdraw() external onlyOwner {\n    owner.transfer(this.balance);\n  }\n  \n  /**\n  * @dev Function to level up zombie \n  * @param _zombieId Uint Id of Zombie to level up.\n  */\n  function levelUp(uint _zombieId) external payable {\n    require(msg.value == levelUpFee);\n    uint32 _level = zombies[_zombieId].level.add(1);\n    zombies[_zombieId].level = _level;\n  }  \n  \n  /**\n  * @dev Function for contract owner to set level up fee.\n  * @param _fee The amount of the fee.\n  */\n  function setLevelUpFee(uint _fee) external onlyOwner {\n    levelUpFee = _fee;\n  }\n  \n  /**\n  * @dev Function to change Zombie's name.\n  * @dev Modifer requires Zombie level >= 2.\n  * @param _zombieId Id of Zombie.\n  * @param _newName String name for Zombie.\n  */\n  function changeName(uint _zombieId, string _newName) external aboveLevel(2, _zombieId) onlyOwnerOf(_zombieId) {\n    zombies[_zombieId].name = _newName;\n  }\n  \n  /**\n  * @dev Function to change zombie's dna.\n  * @dev Modifier requires Zombie level >= 20.\n  * @param _zombieId Id of Zombie.\n  * @param _newDna Uint 'dna' for Zombie.\n  */\n  function changeDna(uint _zombieId, uint _newDna) external aboveLevel(20, _zombieId) onlyOwnerOf(_zombieId) {\n    zombies[_zombieId].dna = _newDna;\n  }\n  \n  /**\n  * @dev Function to get Zombies of specified owner.\n  * @param _owner The address of specified owner.\n  * @return result Array of uints representing owner's zombies.\n  */\n  function getZombiesByOwner(address _owner) external view returns(uint[]) {\n    // Initialize array of size equal to number of owner's zombies\n    uint[] memory result = new uint[](ownerZombieCount[_owner]);\n    // Initialize counter for index of result array\n    uint counter = 0;\n    // Iterate thru zombies \n    for (uint i = 0; i < zombies.length; i++) {\n      // Check if belongs to owner\n      if (zombieToOwner[i] == _owner) {\n        // Add to result array \n        result[counter] = i;\n        // Increment counter \n        counter++;\n      }\n    }\n    return result;\n  }\n\n}\n",
  "sourcePath": "D:\\coDe\\cryptozombies\\ethereum\\contracts\\zombiehelper.sol",
  "compiler": {
    "name": "solc",
    "version": "0.4.19+commit.c4cbbb05.Emscripten.clang"
  },
  "schemaVersion": "2.0.0",
  "updatedAt": "2018-04-15T15:53:53.290Z"
}